{
  "_format": "hh-sol-artifact-1",
  "contractName": "Verifier",
  "sourceName": "circuit-contracts/contracts/verifier.sol",
  "abi": [
    {
      "inputs": [
        {
          "internalType": "uint256[2]",
          "name": "a",
          "type": "uint256[2]"
        },
        {
          "internalType": "uint256[2][2]",
          "name": "b",
          "type": "uint256[2][2]"
        },
        {
          "internalType": "uint256[2]",
          "name": "c",
          "type": "uint256[2]"
        },
        {
          "internalType": "uint256[7]",
          "name": "input",
          "type": "uint256[7]"
        }
      ],
      "name": "verifyProof",
      "outputs": [
        {
          "internalType": "bool",
          "name": "r",
          "type": "bool"
        }
      ],
      "stateMutability": "view",
      "type": "function"
    }
  ],
  "bytecode": "0x608060405234801561001057600080fd5b50611d32806100206000396000f3fe608060405234801561001057600080fd5b506004361061002b5760003560e01c8063c894e75714610030575b600080fd5b61004a600480360381019061004591906117da565b610060565b604051610057919061185e565b60405180910390f35b600061006a6113aa565b60405180604001604052808760006002811061008957610088611879565b5b60200201518152602001876001600281106100a7576100a6611879565b5b6020020151815250816000018190525060405180604001604052806040518060400160405280886000600281106100e1576100e0611879565b5b60200201516000600281106100f9576100f8611879565b5b602002015181526020018860006002811061011757610116611879565b5b602002015160016002811061012f5761012e611879565b5b6020020151815250815260200160405180604001604052808860016002811061015b5761015a611879565b5b602002015160006002811061017357610172611879565b5b602002015181526020018860016002811061019157610190611879565b5b60200201516001600281106101a9576101a8611879565b5b602002015181525081525081602001819052506040518060400160405280856000600281106101db576101da611879565b5b60200201518152602001856001600281106101f9576101f8611879565b5b602002015181525081604001819052506000600767ffffffffffffffff81111561022657610225611511565b5b6040519080825280602002602001820160405280156102545781602001602082028036833780820191505090505b50905060005b60078110156102ad5784816007811061027657610275611879565b5b602002015182828151811061028e5761028d611879565b5b60200260200101818152505080806102a5906118d7565b91505061025a565b5060006102ba82846102d9565b036102ca576001925050506102d1565b6000925050505b949350505050565b6000807f30644e72e131a029b85045b68181585d2833e84879b9709143e1f593f0000001905060006103096104cc565b90508060800151516001865161031f919061191f565b1461035f576040517f08c379a0000000000000000000000000000000000000000000000000000000008152600401610356906119d2565b60405180910390fd5b60006040518060400160405280600081526020016000815250905060005b865181101561044e578387828151811061039a57610399611879565b5b6020026020010151106103e2576040517f08c379a00000000000000000000000000000000000000000000000000000000081526004016103d990611a3e565b60405180910390fd5b6104398261043485608001516001856103fb919061191f565b8151811061040c5761040b611879565b5b60200260200101518a858151811061042757610426611879565b5b6020026020010151610ba0565b610c78565b91508080610446906118d7565b91505061037d565b5061047881836080015160008151811061046b5761046a611879565b5b6020026020010151610c78565b90506104ae61048a8660000151610d76565b8660200151846000015185602001518587604001518b604001518960600151610e1b565b6104be57600193505050506104c6565b600093505050505b92915050565b6104d46113dd565b60405180604001604052807f2d4d9aa7e302d9df41749d5507949d05dbea33fbb16c643b22f599a2be6df2e281526020017f14bedd503c37ceb061d8ec60209fe345ce89830a19230301f076caff004d19268152508160000181905250604051806040016040528060405180604001604052807f0967032fcbf776d1afc985f88877f182d38480a653f2decaa9794cbc3bf3060c81526020017f0e187847ad4c798374d0d6732bf501847dd68bc0e071241e0213bc7fc13db7ab815250815260200160405180604001604052807f304cfbd1e08a704a99f5e847d93f8c3caafddec46b7a0d379da69a4d112346a781526020017f1739c1b1a457a8c7313123d24d2f9192f896b7c63eea05a9d57f06547ad0cec88152508152508160200181905250604051806040016040528060405180604001604052807f198e9393920d483a7260bfb731fb5d25f1aa493335a9e71297e485b7aef312c281526020017f1800deef121f1e76426a00665e5c4479674322d4f75edadd46debd5cd992f6ed815250815260200160405180604001604052807f090689d0585ff075ec9e99ad690c3395bc4b313370b38ef355acdadcd122975b81526020017f12c85ea5db8c6deb4aab71808dcb408fe3d1e7690c43d37b4ce6cc0166fa7daa8152508152508160400181905250604051806040016040528060405180604001604052807f17c5bc5591e3511a6508580859a5a781749438f8a15c6f7463618496f48f266a81526020017f0f8073f0de8e3090df195a52379b0f7bd3720198b8eefc0889d0e9133e32d9d1815250815260200160405180604001604052807f0e481e0d6a9b85afe12619ad011867366bf3b210114adb7c368e6b15eec7ee4881526020017f292e8ecb91ce4d677c136623522a10ce66358177307f6c3dbc9f612609a480388152508152508160600181905250600867ffffffffffffffff81111561079b5761079a611511565b5b6040519080825280602002602001820160405280156107d457816020015b6107c1611424565b8152602001906001900390816107b95790505b50816080018190525060405180604001604052807f0785d412fd9f38a0581e6bc74186199ece6072c55afbe91078ce1d97d563ad9a81526020017f1893c385e4510d7efe1e9e136604ae177f3104078846af1c412b56df86a24a13815250816080015160008151811061084a57610849611879565b5b602002602001018190525060405180604001604052807f041fb6087a66d04f309eb69223d8444bec382de7152bc61c0d10db85eaac82cc81526020017f07ca655ddb737330a9a8b0964b4493f87f70d8c86b58af26061a60541533cefd81525081608001516001815181106108c2576108c1611879565b5b602002602001018190525060405180604001604052807f2b6a8388cc0d5d8413453456b06e3e6b842dbd793f1d9a7953198fea66489eab81526020017f03e89b172966cf09aeeb4a7c6371a37eb52f0d2fb61e83060ca3dc218ded82bf815250816080015160028151811061093a57610939611879565b5b602002602001018190525060405180604001604052807f2277b83b1942bee84bd8cc553c004f1926d49b1b86bcadc73d00bf121b72104981526020017f08948258e8e9b28cf449932811e36f4e81cf6769f7f5ee28f2a3725e898702ed81525081608001516003815181106109b2576109b1611879565b5b602002602001018190525060405180604001604052807f264059a6b840fc4223a9c99a1cb5272c2d6c1586c9f0391da3d43c0b09f7433f81526020017f0f731f219e3897f2d0386feaf7be38a90bd5aeee1f92798ab0f4349c3c9dec868152508160800151600481518110610a2a57610a29611879565b5b602002602001018190525060405180604001604052807f017f547009cd5d212c4670ae362b51f79a074e8b5c9bc8cec86283ecf53cdc5a81526020017f059ded25750575a2d5b92976779ba1ecbef84976de27f2212a7ad8d8dafef7e18152508160800151600581518110610aa257610aa1611879565b5b602002602001018190525060405180604001604052807f273083338ca0b5662ff160d18c82c6dad81b750dce3f71c540cf956a81683d7f81526020017f150ea980de27dc51f47e541e8c458760cd61a736729ca68565025cf1e3ff0f958152508160800151600681518110610b1a57610b19611879565b5b602002602001018190525060405180604001604052807f23d40d573cc9172f67e97630b9a575292dad5eb984fa8a6ca3ac007d3fd756cc81526020017f14fccee2317c78f31a69803c62dcea52ee9a115b973a43819df0728d1b4155938152508160800151600781518110610b9257610b91611879565b5b602002602001018190525090565b610ba8611424565b610bb061143e565b836000015181600060038110610bc957610bc8611879565b5b602002018181525050836020015181600160038110610beb57610bea611879565b5b6020020181815250508281600260038110610c0957610c08611879565b5b602002018181525050600060608360808460076107d05a03fa90508060008103610c2f57fe5b5080610c70576040517f08c379a0000000000000000000000000000000000000000000000000000000008152600401610c6790611aaa565b60405180910390fd5b505092915050565b610c80611424565b610c88611460565b836000015181600060048110610ca157610ca0611879565b5b602002018181525050836020015181600160048110610cc357610cc2611879565b5b602002018181525050826000015181600260048110610ce557610ce4611879565b5b602002018181525050826020015181600360048110610d0757610d06611879565b5b602002018181525050600060608360c08460066107d05a03fa90508060008103610d2d57fe5b5080610d6e576040517f08c379a0000000000000000000000000000000000000000000000000000000008152600401610d6590611b16565b60405180910390fd5b505092915050565b610d7e611424565b60007f30644e72e131a029b85045b68181585d97816a916871ca8d3c208c16d87cfd47905060008360000151148015610dbb575060008360200151145b15610ddf576040518060400160405280600081526020016000815250915050610e16565b604051806040016040528084600001518152602001828560200151610e049190611b65565b83610e0f9190611b96565b8152509150505b919050565b600080600467ffffffffffffffff811115610e3957610e38611511565b5b604051908082528060200260200182016040528015610e7257816020015b610e5f611424565b815260200190600190039081610e575790505b5090506000600467ffffffffffffffff811115610e9257610e91611511565b5b604051908082528060200260200182016040528015610ecb57816020015b610eb8611482565b815260200190600190039081610eb05790505b5090508a82600081518110610ee357610ee2611879565b5b60200260200101819052508882600181518110610f0357610f02611879565b5b60200260200101819052508682600281518110610f2357610f22611879565b5b60200260200101819052508482600381518110610f4357610f42611879565b5b60200260200101819052508981600081518110610f6357610f62611879565b5b60200260200101819052508781600181518110610f8357610f82611879565b5b60200260200101819052508581600281518110610fa357610fa2611879565b5b60200260200101819052508381600381518110610fc357610fc2611879565b5b6020026020010181905250610fd88282610fe8565b9250505098975050505050505050565b6000815183511461102e576040517f08c379a000000000000000000000000000000000000000000000000000000000815260040161102590611c16565b60405180910390fd5b60008351905060006006826110439190611c36565b905060008167ffffffffffffffff81111561106157611060611511565b5b60405190808252806020026020018201604052801561108f5781602001602082028036833780820191505090505b50905060005b83811015611314578681815181106110b0576110af611879565b5b6020026020010151600001518260006006846110cc9190611c36565b6110d6919061191f565b815181106110e7576110e6611879565b5b60200260200101818152505086818151811061110657611105611879565b5b6020026020010151602001518260016006846111229190611c36565b61112c919061191f565b8151811061113d5761113c611879565b5b60200260200101818152505085818151811061115c5761115b611879565b5b60200260200101516000015160006002811061117b5761117a611879565b5b60200201518260026006846111909190611c36565b61119a919061191f565b815181106111ab576111aa611879565b5b6020026020010181815250508581815181106111ca576111c9611879565b5b6020026020010151600001516001600281106111e9576111e8611879565b5b60200201518260036006846111fe9190611c36565b611208919061191f565b8151811061121957611218611879565b5b60200260200101818152505085818151811061123857611237611879565b5b60200260200101516020015160006002811061125757611256611879565b5b602002015182600460068461126c9190611c36565b611276919061191f565b8151811061128757611286611879565b5b6020026020010181815250508581815181106112a6576112a5611879565b5b6020026020010151602001516001600281106112c5576112c4611879565b5b60200201518260056006846112da9190611c36565b6112e4919061191f565b815181106112f5576112f4611879565b5b602002602001018181525050808061130c906118d7565b915050611095565b5061131d6114a8565b6000602082602086026020860160086107d05a03fa9050806000810361133f57fe5b5080611380576040517f08c379a000000000000000000000000000000000000000000000000000000000815260040161137790611cdc565b60405180910390fd5b60008260006001811061139657611395611879565b5b602002015114159550505050505092915050565b60405180606001604052806113bd611424565b81526020016113ca611482565b81526020016113d7611424565b81525090565b6040518060a001604052806113f0611424565b81526020016113fd611482565b815260200161140a611482565b8152602001611417611482565b8152602001606081525090565b604051806040016040528060008152602001600081525090565b6040518060600160405280600390602082028036833780820191505090505090565b6040518060800160405280600490602082028036833780820191505090505090565b60405180604001604052806114956114ca565b81526020016114a26114ca565b81525090565b6040518060200160405280600190602082028036833780820191505090505090565b6040518060400160405280600290602082028036833780820191505090505090565b6000604051905090565b600080fd5b600080fd5b6000601f19601f8301169050919050565b7f4e487b7100000000000000000000000000000000000000000000000000000000600052604160045260246000fd5b61154982611500565b810181811067ffffffffffffffff8211171561156857611567611511565b5b80604052505050565b600061157b6114ec565b90506115878282611540565b919050565b600067ffffffffffffffff8211156115a7576115a6611511565b5b602082029050919050565b600080fd5b6000819050919050565b6115ca816115b7565b81146115d557600080fd5b50565b6000813590506115e7816115c1565b92915050565b60006116006115fb8461158c565b611571565b9050806020840283018581111561161a576116196115b2565b5b835b81811015611643578061162f88826115d8565b84526020840193505060208101905061161c565b5050509392505050565b600082601f830112611662576116616114fb565b5b600261166f8482856115ed565b91505092915050565b600067ffffffffffffffff82111561169357611692611511565b5b602082029050919050565b60006116b16116ac84611678565b611571565b905080604084028301858111156116cb576116ca6115b2565b5b835b818110156116f457806116e0888261164d565b8452602084019350506040810190506116cd565b5050509392505050565b600082601f830112611713576117126114fb565b5b600261172084828561169e565b91505092915050565b600067ffffffffffffffff82111561174457611743611511565b5b602082029050919050565b600061176261175d84611729565b611571565b9050806020840283018581111561177c5761177b6115b2565b5b835b818110156117a5578061179188826115d8565b84526020840193505060208101905061177e565b5050509392505050565b600082601f8301126117c4576117c36114fb565b5b60076117d184828561174f565b91505092915050565b6000806000806101e085870312156117f5576117f46114f6565b5b60006118038782880161164d565b9450506040611814878288016116fe565b93505060c06118258782880161164d565b925050610100611837878288016117af565b91505092959194509250565b60008115159050919050565b61185881611843565b82525050565b6000602082019050611873600083018461184f565b92915050565b7f4e487b7100000000000000000000000000000000000000000000000000000000600052603260045260246000fd5b7f4e487b7100000000000000000000000000000000000000000000000000000000600052601160045260246000fd5b60006118e2826115b7565b91507fffffffffffffffffffffffffffffffffffffffffffffffffffffffffffffffff8203611914576119136118a8565b5b600182019050919050565b600061192a826115b7565b9150611935836115b7565b9250827fffffffffffffffffffffffffffffffffffffffffffffffffffffffffffffffff0382111561196a576119696118a8565b5b828201905092915050565b600082825260208201905092915050565b7f76657269666965722d6261642d696e7075740000000000000000000000000000600082015250565b60006119bc601283611975565b91506119c782611986565b602082019050919050565b600060208201905081810360008301526119eb816119af565b9050919050565b7f76657269666965722d6774652d736e61726b2d7363616c61722d6669656c6400600082015250565b6000611a28601f83611975565b9150611a33826119f2565b602082019050919050565b60006020820190508181036000830152611a5781611a1b565b9050919050565b7f70616972696e672d6d756c2d6661696c65640000000000000000000000000000600082015250565b6000611a94601283611975565b9150611a9f82611a5e565b602082019050919050565b60006020820190508181036000830152611ac381611a87565b9050919050565b7f70616972696e672d6164642d6661696c65640000000000000000000000000000600082015250565b6000611b00601283611975565b9150611b0b82611aca565b602082019050919050565b60006020820190508181036000830152611b2f81611af3565b9050919050565b7f4e487b7100000000000000000000000000000000000000000000000000000000600052601260045260246000fd5b6000611b70826115b7565b9150611b7b836115b7565b925082611b8b57611b8a611b36565b5b828206905092915050565b6000611ba1826115b7565b9150611bac836115b7565b925082821015611bbf57611bbe6118a8565b5b828203905092915050565b7f70616972696e672d6c656e677468732d6661696c656400000000000000000000600082015250565b6000611c00601683611975565b9150611c0b82611bca565b602082019050919050565b60006020820190508181036000830152611c2f81611bf3565b9050919050565b6000611c41826115b7565b9150611c4c836115b7565b9250817fffffffffffffffffffffffffffffffffffffffffffffffffffffffffffffffff0483118215151615611c8557611c846118a8565b5b828202905092915050565b7f70616972696e672d6f70636f64652d6661696c65640000000000000000000000600082015250565b6000611cc6601583611975565b9150611cd182611c90565b602082019050919050565b60006020820190508181036000830152611cf581611cb9565b905091905056fea2646970667358221220a11fa9c2a29a43953b7149c93e00ca6f0532dc584c86bbd224a191d6bce1a13c64736f6c634300080d0033",
  "linkReferences": {},
  "deployedLinkReferences": {}
}