{
  "_format": "hh-sol-artifact-1",
  "contractName": "Guess",
  "sourceName": "circuit-contracts/contracts/verify-guess.sol",
  "abi": [
    {
      "anonymous": false,
      "inputs": [
        {
          "indexed": false,
          "internalType": "uint256",
          "name": "gameId",
          "type": "uint256"
        },
        {
          "indexed": false,
          "internalType": "address",
          "name": "winner",
          "type": "address"
        }
      ],
      "name": "GameFinished",
      "type": "event"
    },
    {
      "anonymous": false,
      "inputs": [
        {
          "indexed": false,
          "internalType": "uint256",
          "name": "gameId",
          "type": "uint256"
        }
      ],
      "name": "GameStarted",
      "type": "event"
    },
    {
      "anonymous": false,
      "inputs": [
        {
          "indexed": false,
          "internalType": "uint256",
          "name": "gameId",
          "type": "uint256"
        },
        {
          "indexed": false,
          "internalType": "uint256",
          "name": "guessMurderer",
          "type": "uint256"
        },
        {
          "indexed": false,
          "internalType": "uint256",
          "name": "guessWeapon",
          "type": "uint256"
        },
        {
          "indexed": false,
          "internalType": "uint256",
          "name": "guessRoom",
          "type": "uint256"
        },
        {
          "indexed": false,
          "internalType": "uint256",
          "name": "matchedMurderer",
          "type": "uint256"
        },
        {
          "indexed": false,
          "internalType": "uint256",
          "name": "matchedWeapon",
          "type": "uint256"
        },
        {
          "indexed": false,
          "internalType": "uint256",
          "name": "matchedRoom",
          "type": "uint256"
        }
      ],
      "name": "GuessAnswer",
      "type": "event"
    },
    {
      "anonymous": false,
      "inputs": [
        {
          "indexed": false,
          "internalType": "uint256",
          "name": "gameId",
          "type": "uint256"
        },
        {
          "indexed": false,
          "internalType": "uint256",
          "name": "guessMurderer",
          "type": "uint256"
        },
        {
          "indexed": false,
          "internalType": "uint256",
          "name": "guessWeapon",
          "type": "uint256"
        },
        {
          "indexed": false,
          "internalType": "uint256",
          "name": "guessRoom",
          "type": "uint256"
        }
      ],
      "name": "PlayerGuess",
      "type": "event"
    },
    {
      "inputs": [
        {
          "internalType": "uint256",
          "name": "gameId",
          "type": "uint256"
        },
        {
          "internalType": "uint256",
          "name": "matchedMurderer",
          "type": "uint256"
        },
        {
          "internalType": "uint256",
          "name": "matchedWeapon",
          "type": "uint256"
        },
        {
          "internalType": "uint256",
          "name": "matchedRoom",
          "type": "uint256"
        },
        {
          "internalType": "uint256[2]",
          "name": "a",
          "type": "uint256[2]"
        },
        {
          "internalType": "uint256[2][2]",
          "name": "b",
          "type": "uint256[2][2]"
        },
        {
          "internalType": "uint256[2]",
          "name": "c",
          "type": "uint256[2]"
        }
      ],
      "name": "answerGuess",
      "outputs": [],
      "stateMutability": "nonpayable",
      "type": "function"
    },
    {
      "inputs": [
        {
          "internalType": "uint256",
          "name": "gameId",
          "type": "uint256"
        },
        {
          "internalType": "uint256",
          "name": "room",
          "type": "uint256"
        }
      ],
      "name": "changeRoom",
      "outputs": [],
      "stateMutability": "nonpayable",
      "type": "function"
    },
    {
      "inputs": [
        {
          "internalType": "uint256",
          "name": "gameId",
          "type": "uint256"
        },
        {
          "internalType": "uint256",
          "name": "guessMurderer",
          "type": "uint256"
        },
        {
          "internalType": "uint256",
          "name": "guessWeapon",
          "type": "uint256"
        }
      ],
      "name": "playerGuess",
      "outputs": [],
      "stateMutability": "nonpayable",
      "type": "function"
    },
    {
      "inputs": [
        {
          "internalType": "uint256",
          "name": "gameId",
          "type": "uint256"
        },
        {
          "internalType": "uint256",
          "name": "commitment",
          "type": "uint256"
        },
        {
          "internalType": "address[6]",
          "name": "players",
          "type": "address[6]"
        },
        {
          "internalType": "uint256",
          "name": "numOfPlayers",
          "type": "uint256"
        }
      ],
      "name": "startGame",
      "outputs": [],
      "stateMutability": "nonpayable",
      "type": "function"
    },
    {
      "inputs": [
        {
          "internalType": "uint256[2]",
          "name": "a",
          "type": "uint256[2]"
        },
        {
          "internalType": "uint256[2][2]",
          "name": "b",
          "type": "uint256[2][2]"
        },
        {
          "internalType": "uint256[2]",
          "name": "c",
          "type": "uint256[2]"
        },
        {
          "internalType": "uint256[7]",
          "name": "input",
          "type": "uint256[7]"
        }
      ],
      "name": "verifyProof",
      "outputs": [
        {
          "internalType": "bool",
          "name": "r",
          "type": "bool"
        }
      ],
      "stateMutability": "view",
      "type": "function"
    }
  ],
  "bytecode": "0x608060405234801561001057600080fd5b50613179806100206000396000f3fe608060405234801561001057600080fd5b50600436106100575760003560e01c806316935d431461005c5780631b05174d146100785780636474351e146100945780638676a36f146100b0578063c894e757146100cc575b600080fd5b610076600480360381019061007191906122f2565b6100fc565b005b610092600480360381019061008d919061253d565b6104a7565b005b6100ae60048036038101906100a99190612603565b61091d565b005b6100ca60048036038101906100c5919061266c565b610b08565b005b6100e660048036038101906100e1919061275d565b610e21565b6040516100f391906127e1565b60405180910390f35b60008060008581526020019081526020016000206012015403610154576040517f08c379a000000000000000000000000000000000000000000000000000000000815260040161014b90612859565b60405180910390fd5b6000151560008085815260200190815260200160002060110160009054906101000a900460ff161515146101bd576040517f08c379a00000000000000000000000000000000000000000000000000000000081526004016101b4906128c5565b60405180910390fd5b60008084815260200190815260200160002060030160008085815260200190815260200160002060100154600681106101f9576101f86128e5565b5b6002020160000160009054906101000a900473ffffffffffffffffffffffffffffffffffffffff1673ffffffffffffffffffffffffffffffffffffffff163373ffffffffffffffffffffffffffffffffffffffff161461028e576040517f08c379a000000000000000000000000000000000000000000000000000000000815260040161028590612960565b60405180910390fd5b600060018111156102a2576102a1612980565b5b60008085815260200190815260200160002060110160019054906101000a900460ff1660018111156102d7576102d6612980565b5b14610317576040517f08c379a000000000000000000000000000000000000000000000000000000000815260040161030e906129fb565b60405180910390fd5b816000808581526020019081526020016000206000016000600381106103405761033f6128e5565b5b01819055506000808481526020019081526020016000206003016000808581526020019081526020016000206010015460068110610381576103806128e5565b5b60020201600101546000808581526020019081526020016000206000016001600381106103b1576103b06128e5565b5b0181905550806000808581526020019081526020016000206000016002600381106103df576103de6128e5565b5b0181905550600160008085815260200190815260200160002060110160016101000a81548160ff0219169083600181111561041d5761041c612980565b5b02179055507f99b4dfdf6de563a369ea18fce0c69ddec193113d94bc3775c2382ee9e9fe01508383836000808881526020019081526020016000206003016000808981526020019081526020016000206010015460068110610482576104816128e5565b5b600202016001015460405161049a9493929190612a2a565b60405180910390a1505050565b600080600089815260200190815260200160002060120154036104ff576040517f08c379a00000000000000000000000000000000000000000000000000000000081526004016104f690612859565b60405180910390fd5b6000151560008089815260200190815260200160002060110160009054906101000a900460ff16151514610568576040517f08c379a000000000000000000000000000000000000000000000000000000000815260040161055f906128c5565b60405180910390fd5b60018081111561057b5761057a612980565b5b60008089815260200190815260200160002060110160019054906101000a900460ff1660018111156105b0576105af612980565b5b146105f0576040517f08c379a00000000000000000000000000000000000000000000000000000000081526004016105e7906129fb565b60405180910390fd5b600115156106c28484846040518060e001604052808c81526020018b81526020018a81526020016000808f815260200190815260200160002060000160006003811061063f5761063e6128e5565b5b015481526020016000808f815260200190815260200160002060000160016003811061066e5761066d6128e5565b5b015481526020016000808f815260200190815260200160002060000160026003811061069d5761069c6128e5565b5b015481526020016000808f815260200190815260200160002060120154815250610e21565b151514610704576040517f08c379a00000000000000000000000000000000000000000000000000000000081526004016106fb90612abb565b60405180910390fd5b6001861480156107145750600185145b80156107205750600184145b156107f457600160008089815260200190815260200160002060110160006101000a81548160ff0219169083151502179055507fb7f35e624e036288272fbf3342c09219261ff29fdddd826989b289134e9ae535876000808a81526020019081526020016000206003016000808b815260200190815260200160002060100154600681106107b1576107b06128e5565b5b6002020160000160009054906101000a900473ffffffffffffffffffffffffffffffffffffffff166040516107e7929190612b1c565b60405180910390a1610914565b6000806000898152602001908152602001600020600f015460016000808b81526020019081526020016000206010015461082e9190612b74565b6108389190612bf9565b9050806000808a8152602001908152602001600020601001819055507f02c30067e5346e4b887d051dcb40d5fff24d81b4c2ae60822a693976aaf4f1ed886000808b815260200190815260200160002060000160006003811061089e5761089d6128e5565b5b01546000808c81526020019081526020016000206000016001600381106108c8576108c76128e5565b5b01546000808d81526020019081526020016000206000016002600381106108f2576108f16128e5565b5b01548b8b8b60405161090a9796959493929190612c2a565b60405180910390a1505b50505050505050565b60008060008681526020019081526020016000206012015414610975576040517f08c379a000000000000000000000000000000000000000000000000000000000815260040161096c90612ce5565b60405180910390fd5b826000808681526020019081526020016000206012018190555080600080868152602001908152602001600020600f0181905550600080600086815260200190815260200160002060110160016101000a81548160ff021916908360018111156109e2576109e1612980565b5b021790555060005b81811015610aca57828160068110610a0557610a046128e5565b5b602002016020810190610a189190612d31565b6000808781526020019081526020016000206003018260068110610a3f57610a3e6128e5565b5b6002020160000160006101000a81548173ffffffffffffffffffffffffffffffffffffffff021916908373ffffffffffffffffffffffffffffffffffffffff160217905550806000808781526020019081526020016000206003018260068110610aac57610aab6128e5565b5b60020201600101819055508080610ac290612d5e565b9150506109ea565b507f50ad08f58a27f2851d7e3a1b3a6a46b290f2ce677e99642d30ff639721e7779084604051610afa9190612da6565b60405180910390a150505050565b60008060008481526020019081526020016000206012015403610b60576040517f08c379a0000000000000000000000000000000000000000000000000000000008152600401610b5790612859565b60405180910390fd5b6000151560008084815260200190815260200160002060110160009054906101000a900460ff16151514610bc9576040517f08c379a0000000000000000000000000000000000000000000000000000000008152600401610bc0906128c5565b60405180910390fd5b6000808381526020019081526020016000206003016000808481526020019081526020016000206010015460068110610c0557610c046128e5565b5b6002020160000160009054906101000a900473ffffffffffffffffffffffffffffffffffffffff1673ffffffffffffffffffffffffffffffffffffffff163373ffffffffffffffffffffffffffffffffffffffff1614610c9a576040517f08c379a0000000000000000000000000000000000000000000000000000000008152600401610c9190612960565b60405180910390fd5b60006001811115610cae57610cad612980565b5b60008084815260200190815260200160002060110160019054906101000a900460ff166001811115610ce357610ce2612980565b5b14610d23576040517f08c379a0000000000000000000000000000000000000000000000000000000008152600401610d1a906129fb565b60405180910390fd5b60018110158015610d35575060068111155b610d74576040517f08c379a0000000000000000000000000000000000000000000000000000000008152600401610d6b90612e0d565b60405180910390fd5b806000808481526020019081526020016000206003016000808581526020019081526020016000206010015460068110610db157610db06128e5565b5b60020201600101819055506000806000848152602001908152602001600020600f0154600160008086815260200190815260200160002060100154610df69190612b74565b610e009190612bf9565b90508060008085815260200190815260200160002060100181905550505050565b6000610e2b61216b565b604051806040016040528087600060028110610e4a57610e496128e5565b5b6020020151815260200187600160028110610e6857610e676128e5565b5b602002015181525081600001819052506040518060400160405280604051806040016040528088600060028110610ea257610ea16128e5565b5b6020020151600060028110610eba57610eb96128e5565b5b6020020151815260200188600060028110610ed857610ed76128e5565b5b6020020151600160028110610ef057610eef6128e5565b5b60200201518152508152602001604051806040016040528088600160028110610f1c57610f1b6128e5565b5b6020020151600060028110610f3457610f336128e5565b5b6020020151815260200188600160028110610f5257610f516128e5565b5b6020020151600160028110610f6a57610f696128e5565b5b60200201518152508152508160200181905250604051806040016040528085600060028110610f9c57610f9b6128e5565b5b6020020151815260200185600160028110610fba57610fb96128e5565b5b602002015181525081604001819052506000600767ffffffffffffffff811115610fe757610fe661235b565b5b6040519080825280602002602001820160405280156110155781602001602082028036833780820191505090505b50905060005b600781101561106e57848160078110611037576110366128e5565b5b602002015182828151811061104f5761104e6128e5565b5b602002602001018181525050808061106690612d5e565b91505061101b565b50600061107b828461109a565b0361108b57600192505050611092565b6000925050505b949350505050565b6000807f30644e72e131a029b85045b68181585d2833e84879b9709143e1f593f0000001905060006110ca61128d565b9050806080015151600186516110e09190612b74565b14611120576040517f08c379a000000000000000000000000000000000000000000000000000000000815260040161111790612e79565b60405180910390fd5b60006040518060400160405280600081526020016000815250905060005b865181101561120f578387828151811061115b5761115a6128e5565b5b6020026020010151106111a3576040517f08c379a000000000000000000000000000000000000000000000000000000000815260040161119a90612ee5565b60405180910390fd5b6111fa826111f585608001516001856111bc9190612b74565b815181106111cd576111cc6128e5565b5b60200260200101518a85815181106111e8576111e76128e5565b5b6020026020010151611961565b611a39565b9150808061120790612d5e565b91505061113e565b5061123981836080015160008151811061122c5761122b6128e5565b5b6020026020010151611a39565b905061126f61124b8660000151611b37565b8660200151846000015185602001518587604001518b604001518960600151611bdc565b61127f5760019350505050611287565b600093505050505b92915050565b61129561219e565b60405180604001604052807f2d4d9aa7e302d9df41749d5507949d05dbea33fbb16c643b22f599a2be6df2e281526020017f14bedd503c37ceb061d8ec60209fe345ce89830a19230301f076caff004d19268152508160000181905250604051806040016040528060405180604001604052807f0967032fcbf776d1afc985f88877f182d38480a653f2decaa9794cbc3bf3060c81526020017f0e187847ad4c798374d0d6732bf501847dd68bc0e071241e0213bc7fc13db7ab815250815260200160405180604001604052807f304cfbd1e08a704a99f5e847d93f8c3caafddec46b7a0d379da69a4d112346a781526020017f1739c1b1a457a8c7313123d24d2f9192f896b7c63eea05a9d57f06547ad0cec88152508152508160200181905250604051806040016040528060405180604001604052807f198e9393920d483a7260bfb731fb5d25f1aa493335a9e71297e485b7aef312c281526020017f1800deef121f1e76426a00665e5c4479674322d4f75edadd46debd5cd992f6ed815250815260200160405180604001604052807f090689d0585ff075ec9e99ad690c3395bc4b313370b38ef355acdadcd122975b81526020017f12c85ea5db8c6deb4aab71808dcb408fe3d1e7690c43d37b4ce6cc0166fa7daa8152508152508160400181905250604051806040016040528060405180604001604052807f17c5bc5591e3511a6508580859a5a781749438f8a15c6f7463618496f48f266a81526020017f0f8073f0de8e3090df195a52379b0f7bd3720198b8eefc0889d0e9133e32d9d1815250815260200160405180604001604052807f0e481e0d6a9b85afe12619ad011867366bf3b210114adb7c368e6b15eec7ee4881526020017f292e8ecb91ce4d677c136623522a10ce66358177307f6c3dbc9f612609a480388152508152508160600181905250600867ffffffffffffffff81111561155c5761155b61235b565b5b60405190808252806020026020018201604052801561159557816020015b6115826121e5565b81526020019060019003908161157a5790505b50816080018190525060405180604001604052807f0785d412fd9f38a0581e6bc74186199ece6072c55afbe91078ce1d97d563ad9a81526020017f1893c385e4510d7efe1e9e136604ae177f3104078846af1c412b56df86a24a13815250816080015160008151811061160b5761160a6128e5565b5b602002602001018190525060405180604001604052807f041fb6087a66d04f309eb69223d8444bec382de7152bc61c0d10db85eaac82cc81526020017f07ca655ddb737330a9a8b0964b4493f87f70d8c86b58af26061a60541533cefd8152508160800151600181518110611683576116826128e5565b5b602002602001018190525060405180604001604052807f2b6a8388cc0d5d8413453456b06e3e6b842dbd793f1d9a7953198fea66489eab81526020017f03e89b172966cf09aeeb4a7c6371a37eb52f0d2fb61e83060ca3dc218ded82bf81525081608001516002815181106116fb576116fa6128e5565b5b602002602001018190525060405180604001604052807f2277b83b1942bee84bd8cc553c004f1926d49b1b86bcadc73d00bf121b72104981526020017f08948258e8e9b28cf449932811e36f4e81cf6769f7f5ee28f2a3725e898702ed8152508160800151600381518110611773576117726128e5565b5b602002602001018190525060405180604001604052807f264059a6b840fc4223a9c99a1cb5272c2d6c1586c9f0391da3d43c0b09f7433f81526020017f0f731f219e3897f2d0386feaf7be38a90bd5aeee1f92798ab0f4349c3c9dec8681525081608001516004815181106117eb576117ea6128e5565b5b602002602001018190525060405180604001604052807f017f547009cd5d212c4670ae362b51f79a074e8b5c9bc8cec86283ecf53cdc5a81526020017f059ded25750575a2d5b92976779ba1ecbef84976de27f2212a7ad8d8dafef7e18152508160800151600581518110611863576118626128e5565b5b602002602001018190525060405180604001604052807f273083338ca0b5662ff160d18c82c6dad81b750dce3f71c540cf956a81683d7f81526020017f150ea980de27dc51f47e541e8c458760cd61a736729ca68565025cf1e3ff0f9581525081608001516006815181106118db576118da6128e5565b5b602002602001018190525060405180604001604052807f23d40d573cc9172f67e97630b9a575292dad5eb984fa8a6ca3ac007d3fd756cc81526020017f14fccee2317c78f31a69803c62dcea52ee9a115b973a43819df0728d1b4155938152508160800151600781518110611953576119526128e5565b5b602002602001018190525090565b6119696121e5565b6119716121ff565b83600001518160006003811061198a576119896128e5565b5b6020020181815250508360200151816001600381106119ac576119ab6128e5565b5b60200201818152505082816002600381106119ca576119c96128e5565b5b602002018181525050600060608360808460076107d05a03fa905080600081036119f057fe5b5080611a31576040517f08c379a0000000000000000000000000000000000000000000000000000000008152600401611a2890612f51565b60405180910390fd5b505092915050565b611a416121e5565b611a49612221565b836000015181600060048110611a6257611a616128e5565b5b602002018181525050836020015181600160048110611a8457611a836128e5565b5b602002018181525050826000015181600260048110611aa657611aa56128e5565b5b602002018181525050826020015181600360048110611ac857611ac76128e5565b5b602002018181525050600060608360c08460066107d05a03fa90508060008103611aee57fe5b5080611b2f576040517f08c379a0000000000000000000000000000000000000000000000000000000008152600401611b2690612fbd565b60405180910390fd5b505092915050565b611b3f6121e5565b60007f30644e72e131a029b85045b68181585d97816a916871ca8d3c208c16d87cfd47905060008360000151148015611b7c575060008360200151145b15611ba0576040518060400160405280600081526020016000815250915050611bd7565b604051806040016040528084600001518152602001828560200151611bc59190612bf9565b83611bd09190612fdd565b8152509150505b919050565b600080600467ffffffffffffffff811115611bfa57611bf961235b565b5b604051908082528060200260200182016040528015611c3357816020015b611c206121e5565b815260200190600190039081611c185790505b5090506000600467ffffffffffffffff811115611c5357611c5261235b565b5b604051908082528060200260200182016040528015611c8c57816020015b611c79612243565b815260200190600190039081611c715790505b5090508a82600081518110611ca457611ca36128e5565b5b60200260200101819052508882600181518110611cc457611cc36128e5565b5b60200260200101819052508682600281518110611ce457611ce36128e5565b5b60200260200101819052508482600381518110611d0457611d036128e5565b5b60200260200101819052508981600081518110611d2457611d236128e5565b5b60200260200101819052508781600181518110611d4457611d436128e5565b5b60200260200101819052508581600281518110611d6457611d636128e5565b5b60200260200101819052508381600381518110611d8457611d836128e5565b5b6020026020010181905250611d998282611da9565b9250505098975050505050505050565b60008151835114611def576040517f08c379a0000000000000000000000000000000000000000000000000000000008152600401611de69061305d565b60405180910390fd5b6000835190506000600682611e04919061307d565b905060008167ffffffffffffffff811115611e2257611e2161235b565b5b604051908082528060200260200182016040528015611e505781602001602082028036833780820191505090505b50905060005b838110156120d557868181518110611e7157611e706128e5565b5b602002602001015160000151826000600684611e8d919061307d565b611e979190612b74565b81518110611ea857611ea76128e5565b5b602002602001018181525050868181518110611ec757611ec66128e5565b5b602002602001015160200151826001600684611ee3919061307d565b611eed9190612b74565b81518110611efe57611efd6128e5565b5b602002602001018181525050858181518110611f1d57611f1c6128e5565b5b602002602001015160000151600060028110611f3c57611f3b6128e5565b5b6020020151826002600684611f51919061307d565b611f5b9190612b74565b81518110611f6c57611f6b6128e5565b5b602002602001018181525050858181518110611f8b57611f8a6128e5565b5b602002602001015160000151600160028110611faa57611fa96128e5565b5b6020020151826003600684611fbf919061307d565b611fc99190612b74565b81518110611fda57611fd96128e5565b5b602002602001018181525050858181518110611ff957611ff86128e5565b5b602002602001015160200151600060028110612018576120176128e5565b5b602002015182600460068461202d919061307d565b6120379190612b74565b81518110612048576120476128e5565b5b602002602001018181525050858181518110612067576120666128e5565b5b602002602001015160200151600160028110612086576120856128e5565b5b602002015182600560068461209b919061307d565b6120a59190612b74565b815181106120b6576120b56128e5565b5b60200260200101818152505080806120cd90612d5e565b915050611e56565b506120de612269565b6000602082602086026020860160086107d05a03fa9050806000810361210057fe5b5080612141576040517f08c379a000000000000000000000000000000000000000000000000000000000815260040161213890613123565b60405180910390fd5b600082600060018110612157576121566128e5565b5b602002015114159550505050505092915050565b604051806060016040528061217e6121e5565b815260200161218b612243565b81526020016121986121e5565b81525090565b6040518060a001604052806121b16121e5565b81526020016121be612243565b81526020016121cb612243565b81526020016121d8612243565b8152602001606081525090565b604051806040016040528060008152602001600081525090565b6040518060600160405280600390602082028036833780820191505090505090565b6040518060800160405280600490602082028036833780820191505090505090565b604051806040016040528061225661228b565b815260200161226361228b565b81525090565b6040518060200160405280600190602082028036833780820191505090505090565b6040518060400160405280600290602082028036833780820191505090505090565b6000604051905090565b600080fd5b6000819050919050565b6122cf816122bc565b81146122da57600080fd5b50565b6000813590506122ec816122c6565b92915050565b60008060006060848603121561230b5761230a6122b7565b5b6000612319868287016122dd565b935050602061232a868287016122dd565b925050604061233b868287016122dd565b9150509250925092565b600080fd5b6000601f19601f8301169050919050565b7f4e487b7100000000000000000000000000000000000000000000000000000000600052604160045260246000fd5b6123938261234a565b810181811067ffffffffffffffff821117156123b2576123b161235b565b5b80604052505050565b60006123c56122ad565b90506123d1828261238a565b919050565b600067ffffffffffffffff8211156123f1576123f061235b565b5b602082029050919050565b600080fd5b600061241461240f846123d6565b6123bb565b9050806020840283018581111561242e5761242d6123fc565b5b835b81811015612457578061244388826122dd565b845260208401935050602081019050612430565b5050509392505050565b600082601f83011261247657612475612345565b5b6002612483848285612401565b91505092915050565b600067ffffffffffffffff8211156124a7576124a661235b565b5b602082029050919050565b60006124c56124c08461248c565b6123bb565b905080604084028301858111156124df576124de6123fc565b5b835b8181101561250857806124f48882612461565b8452602084019350506040810190506124e1565b5050509392505050565b600082601f83011261252757612526612345565b5b60026125348482856124b2565b91505092915050565b6000806000806000806000610180888a03121561255d5761255c6122b7565b5b600061256b8a828b016122dd565b975050602061257c8a828b016122dd565b965050604061258d8a828b016122dd565b955050606061259e8a828b016122dd565b94505060806125af8a828b01612461565b93505060c06125c08a828b01612512565b9250506101406125d28a828b01612461565b91505092959891949750929550565b6000819050826020600602820111156125fd576125fc6123fc565b5b92915050565b600080600080610120858703121561261e5761261d6122b7565b5b600061262c878288016122dd565b945050602061263d878288016122dd565b935050604061264e878288016125e1565b925050610100612660878288016122dd565b91505092959194509250565b60008060408385031215612683576126826122b7565b5b6000612691858286016122dd565b92505060206126a2858286016122dd565b9150509250929050565b600067ffffffffffffffff8211156126c7576126c661235b565b5b602082029050919050565b60006126e56126e0846126ac565b6123bb565b905080602084028301858111156126ff576126fe6123fc565b5b835b81811015612728578061271488826122dd565b845260208401935050602081019050612701565b5050509392505050565b600082601f83011261274757612746612345565b5b60076127548482856126d2565b91505092915050565b6000806000806101e08587031215612778576127776122b7565b5b600061278687828801612461565b945050604061279787828801612512565b93505060c06127a887828801612461565b9250506101006127ba87828801612732565b91505092959194509250565b60008115159050919050565b6127db816127c6565b82525050565b60006020820190506127f660008301846127d2565b92915050565b600082825260208201905092915050565b7f47616d65206e6f7420666f756e64000000000000000000000000000000000000600082015250565b6000612843600e836127fc565b915061284e8261280d565b602082019050919050565b6000602082019050818103600083015261287281612836565b9050919050565b7f47616d652069732066696e697368656400000000000000000000000000000000600082015250565b60006128af6010836127fc565b91506128ba82612879565b602082019050919050565b600060208201905081810360008301526128de816128a2565b9050919050565b7f4e487b7100000000000000000000000000000000000000000000000000000000600052603260045260246000fd5b7f4e6f7420796f7572207475726e00000000000000000000000000000000000000600082015250565b600061294a600d836127fc565b915061295582612914565b602082019050919050565b600060208201905081810360008301526129798161293d565b9050919050565b7f4e487b7100000000000000000000000000000000000000000000000000000000600052602160045260246000fd5b7f496e636f72726563742067616d65207374617465000000000000000000000000600082015250565b60006129e56014836127fc565b91506129f0826129af565b602082019050919050565b60006020820190508181036000830152612a14816129d8565b9050919050565b612a24816122bc565b82525050565b6000608082019050612a3f6000830187612a1b565b612a4c6020830186612a1b565b612a596040830185612a1b565b612a666060830184612a1b565b95945050505050565b7f50726f6f66206e6f742076616c69642100000000000000000000000000000000600082015250565b6000612aa56010836127fc565b9150612ab082612a6f565b602082019050919050565b60006020820190508181036000830152612ad481612a98565b9050919050565b600073ffffffffffffffffffffffffffffffffffffffff82169050919050565b6000612b0682612adb565b9050919050565b612b1681612afb565b82525050565b6000604082019050612b316000830185612a1b565b612b3e6020830184612b0d565b9392505050565b7f4e487b7100000000000000000000000000000000000000000000000000000000600052601160045260246000fd5b6000612b7f826122bc565b9150612b8a836122bc565b9250827fffffffffffffffffffffffffffffffffffffffffffffffffffffffffffffffff03821115612bbf57612bbe612b45565b5b828201905092915050565b7f4e487b7100000000000000000000000000000000000000000000000000000000600052601260045260246000fd5b6000612c04826122bc565b9150612c0f836122bc565b925082612c1f57612c1e612bca565b5b828206905092915050565b600060e082019050612c3f600083018a612a1b565b612c4c6020830189612a1b565b612c596040830188612a1b565b612c666060830187612a1b565b612c736080830186612a1b565b612c8060a0830185612a1b565b612c8d60c0830184612a1b565b98975050505050505050565b7f47616d6520616c72656164792065786973747300000000000000000000000000600082015250565b6000612ccf6013836127fc565b9150612cda82612c99565b602082019050919050565b60006020820190508181036000830152612cfe81612cc2565b9050919050565b612d0e81612afb565b8114612d1957600080fd5b50565b600081359050612d2b81612d05565b92915050565b600060208284031215612d4757612d466122b7565b5b6000612d5584828501612d1c565b91505092915050565b6000612d69826122bc565b91507fffffffffffffffffffffffffffffffffffffffffffffffffffffffffffffffff8203612d9b57612d9a612b45565b5b600182019050919050565b6000602082019050612dbb6000830184612a1b565b92915050565b7f496e636f727265637420726f6f6d206e756d6265720000000000000000000000600082015250565b6000612df76015836127fc565b9150612e0282612dc1565b602082019050919050565b60006020820190508181036000830152612e2681612dea565b9050919050565b7f76657269666965722d6261642d696e7075740000000000000000000000000000600082015250565b6000612e636012836127fc565b9150612e6e82612e2d565b602082019050919050565b60006020820190508181036000830152612e9281612e56565b9050919050565b7f76657269666965722d6774652d736e61726b2d7363616c61722d6669656c6400600082015250565b6000612ecf601f836127fc565b9150612eda82612e99565b602082019050919050565b60006020820190508181036000830152612efe81612ec2565b9050919050565b7f70616972696e672d6d756c2d6661696c65640000000000000000000000000000600082015250565b6000612f3b6012836127fc565b9150612f4682612f05565b602082019050919050565b60006020820190508181036000830152612f6a81612f2e565b9050919050565b7f70616972696e672d6164642d6661696c65640000000000000000000000000000600082015250565b6000612fa76012836127fc565b9150612fb282612f71565b602082019050919050565b60006020820190508181036000830152612fd681612f9a565b9050919050565b6000612fe8826122bc565b9150612ff3836122bc565b92508282101561300657613005612b45565b5b828203905092915050565b7f70616972696e672d6c656e677468732d6661696c656400000000000000000000600082015250565b60006130476016836127fc565b915061305282613011565b602082019050919050565b600060208201905081810360008301526130768161303a565b9050919050565b6000613088826122bc565b9150613093836122bc565b9250817fffffffffffffffffffffffffffffffffffffffffffffffffffffffffffffffff04831182151516156130cc576130cb612b45565b5b828202905092915050565b7f70616972696e672d6f70636f64652d6661696c65640000000000000000000000600082015250565b600061310d6015836127fc565b9150613118826130d7565b602082019050919050565b6000602082019050818103600083015261313c81613100565b905091905056fea264697066735822122065ae243e01baddd1bd72f1ca3fec7ab3e344f8acd20a4c16d05852a42e64a3d564736f6c634300080d0033",
  "linkReferences": {},
  "deployedLinkReferences": {}
}